:10000300750801120054EF2481603E24C06035243A
:10001300E0602C24F0602324F8601A24FC6011248F
:10002300FE60081470267508018021750802801C83
:1000330075080480177508088012750810800D75FF
:100043000820800875084080037508808508808033
:01005300B2FA
:10005400E4F509E590F460277F017E00120086E54F
:1000640090F4601B859009E4F50AE590F460107F34
:10007400017E00120086050AE50AC3943240EBAF04
:010084000972
:010085002258
:10008600D3EF9400EE9400400F7D267C82DCFEDDEB
:08009600FAEF1F70EB1E80E879
:01009E00223F
:0300000002009F5C
:0C009F00787FE4F6D8FD75810A020003AA
:00000001FF
