:100065007F02120078D290C292C294D291D293D2DA
:03007500957F0272
:10007800AD071FED600B7E46EED3940040F21E8064
:01008800F780
:010089002254
:10000300C290C292C294D291D293D295120065C289
:1000130090D292D294D291C293C2957F0212007869
:10002300D290C292C294D291C293C295120065D269
:1000330090C292C294C291C293C2957F0212007879
:10004300D290D292D294C291C293C2957F021200EF
:1000530078C290C292C294C291C293C2957F0202A7
:02006300007823
:0500960012000380FBD5
:0300000002008A71
:0C008A00787FE4F6D8FD7581070200962F
:00000001FF
