:1000C600C0F9A4B0999282F880908883C6A1868EE2
:0600D60001080101090010
:10008F00758901758C3C758AB0D28C308DFDC28D0F
:10009F00758C3C758AB00508E508C3941440ECE4F0
:1000AF00F508E5099000C693F5800509E509941058
:0700BF0040D9E4F50980D4EB
:03000000020003F8
:0C000300787FE4F6D8FD75810902004A00
:10000F0002008FE493A3F8E493A34003F68001F278
:10001F0008DFF48029E493A3F85407240CC8C333F2
:10002F00C4540F4420C8834004F456800146F6DFC1
:10003F00E4800B01020408102040809000D6E47E7B
:10004F00019360BCA3FF543F30E509541FFEE493B6
:10005F00A360010ECF54C025E060A840B8E493A37D
:10006F00FAE493A3F8E493A3C8C582C8CAC583CAA8
:10007F00F0A3C8C582C8CAC583CADFE9DEE780BE60
:0100DC000023
:00000001FF
