:100080005354432D3531204D4355002070656E6724
:05009000736870200000
:0C004700C2A5C2A78F80D2A77F057E0053
:100053008F09E509D39400400A750A78D50AFD157E
:040063000980EF22FF
:0800A100C2A6120047C2A7220B
:0800A900D2A6120047C2A722F3
:100067007F381200A17F081200A17F011200A17F33
:09007700061200A17F0F0200A196
:10000300120067E4F508E50890008093FF1200A949
:100013007F2C7E011200530508E508C3940A40E6CD
:100023007FC01200A1E4F508E50890008B93FF124E
:1000330000A97F0A7E001200530508E508C394094E
:0400430040E680FE15
:0300000002009566
:0C009500787FE4F6D8FD75810A020003B4
:00000001FF
