:10035300C0F9A4B0999282F880908883C6A1868E52
:10033E000808000000000000000001120001130078
:04034E000210000099
:10000E00E4F517F516F515F514D2AF758901758C53
:10001E00FC758A18D2A9D28CE513B401FBE4F51352
:10002E00E5172401F517E43516F516E43515F51523
:10003E00E43514F514E47B0AFAF9F8AF17AE16ADF1
:10004E0015AC141201C974532BF58274033AF5835F
:10005E00E493F4F508E47B0AFAF9F8AF17AE16AD9F
:10006E0015AC141201C9E47B0AFAF9F81201C9742D
:10007E00532BF58274033AF583E493F4F509E47B8C
:10008E0064FAF9F8AF17AE16AD15AC141201C9E447
:10009E007B0AFAF9F81201C974532BF58274033AEC
:1000AE00F583E493F4F50AE47BE87A03F9F8AF17E5
:1000BE00AE16AD15AC141201C9E47B0AFAF9F812AA
:1000CE0001C974532BF58274033AF583E493F4F566
:1000DE000BE47B107A27F9F8AF17AE16AD15AC14FA
:1000EE001201C9E47B0AFAF9F81201C974532BF50F
:1000FE008274033AF583E493F4F50C7BA07A867947
:10010E00017800AF17AE16AD15AC141201C9E47B21
:10011E000AFAF9F81201C974532BF58274033AF5F1
:10012E0083E493F4F50D7B407A42790F7800AF1794
:10013E00AE16AD15AC141201C9E47B0AFAF9F81229
:10014E0001C974532BF58274033AF583E493F4F5E5
:10015E000E7B807A9679987800AF17AE16AD15ACF7
:10016E00141201C9E47B0AFAF9F81201C974532B6F
:0F017E00F58274033AF583E493F4F50F0200263B
:03000B000202E707
:1002E700C0E0C083C082C0D075D000C000758CFC50
:1002F700758A180511E51170020510C394E8E51019
:10030700940340097510007511007513017590006D
:10031700E512C394085015E51290035393F4F58042
:1003270074082512F8E6F590051280E4D000D0D0C5
:07033700D082D083D0E03238
:0300000002025B9E
:0C025B00787FE4F6D8FD7581170202A23E
:10018D0075F008758200EF2FFFEE33FECD33CDCC29
:10019D0033CCC58233C5829BED9AEC99E5829840AC
:1001AD000CF582EE9BFEED9AFDEC99FC0FD5F0D689
:1001BD00E4CEFBE4CDFAE4CCF9A88222B800C1B9B3
:1001CD000059BA002DEC8BF084CFCECDFCE5F0CBF1
:1001DD00F97818EF2FFFEE33FEED33FDEC33FCEB2A
:1001ED0033FB10D703994004EB99FB0FD8E5E4F9E5
:1001FD00FA227818EF2FFFEE33FEED33FDEC33FCD2
:10020D00C933C910D7059BE99A4007EC9BFCE99AC5
:10021D00F90FD8E0E4C9FAE4CCFB2275F010EF2F0A
:10022D00FFEE33FEED33FDCC33CCC833C810D7070A
:10023D009BEC9AE899400AED9BFDEC9AFCE899F845
:0E024D000FD5F0DAE4CDFBE4CCFAE4C8F922D8
:1002670002000EE493A3F8E493A34003F68001F29F
:1002770008DFF48029E493A3F85407240CC8C33398
:10028700C4540F4420C8834004F456800146F6DF67
:10029700E4800B010204081020408090033EE47EB6
:1002A700019360BCA3FF543F30E509541FFEE4935C
:1002B700A360010ECF54C025E060A840B8E493A323
:1002C700FAE493A3F8E493A3C8C582C8CAC583CA4E
:1002D700F0A3C8C582C8CAC583CADFE9DEE780BE06
:0103520000AA
:00000001FF
