:10007F003F065B4F666D7D077F6F777C395E7971C9
:01008F000070
:0E009000120003E50890007F93F4F58080F2E3
:10000300E4F50975900FE590640F606F12009EE5AB
:1000130090640F606675900FAF90EF24F560102425
:10002300FE601114601324077012E4F508800D7547
:100033000801800875080280037508037590F0AF06
:1000430090EF2450601124E0601124F060112470BB
:100053007013850808800E74048006740880027487
:100063000C2508F508C3E509648094B2500DE590AA
:0B00730064F0600712009E050980EA9F
:01007E00225F
:0C009E007F017E267D82DDFEDEFADFF6AB
:0100AA002233
:030000000200AB50
:0C00AB00787FE4F6D8FD75810902009012
:00000001FF
