:1000AF00FEFDFBF7EFDFBF7F3F065B4F666D7D0702
:0900BF007F6F777C395E797100D6
:0A00DF000808000000000000000007
:1000C800E4FFEF9000B793FE74082FF8A6060FBF61
:0700D80008F012008F80FB0D
:10008F00E4FFEF9000AF93F59074082FF8E6F5803A
:0F009F007E0AAD061EED70FAE4F5800FBF08E390
:0100AE00222F
:03000000020003F8
:0C000300787FE4F6D8FD75810F02004AFA
:10000F000200C8E493A3F8E493A34003F68001F23F
:10001F0008DFF48029E493A3F85407240CC8C333F2
:10002F00C4540F4420C8834004F456800146F6DFC1
:10003F00E4800B01020408102040809000DFE47E72
:10004F00019360BCA3FF543F30E509541FFEE493B6
:10005F00A360010ECF54C025E060A840B8E493A37D
:10006F00FAE493A3F8E493A3C8C582C8CAC583CAA8
:10007F00F0A3C8C582C8CAC583CADFE9DEE780BE60
:0100E9000016
:00000001FF
