:1001BF003F065B4F666D7D077F6F777C395E797188
:0101CF00002F
:100171001201DCE50BC4540FF50DE50B540FF50E20
:10018100E4F50FE50D9001BF93FFF510E50E93FE29
:10019100F511751276E4F5138F148E157516761216
:0401A10000FD80CF0E
:0401A5007F017E0058
:1001A900EF1FAA0670011E4A600BE4FDEDC3940D12
:0501B90050EE0D80F77F
:0101BE00221E
:0901DC00D288D2A8D2AFD2B2221F
:03000300020006F2
:10000600C0E0C083C082C0D075D000C000C002C0AE
:0700160004C005C006C0078D
:10001D007508007F467E001201A930B2030200E888
:10002D009003E820B218D3E5829400E58394004054
:10003D000D1201A5E582158270E9158380E520B2C8
:10004D00030200E89001F430B218D3E5829400E584
:10005D00839400400D1201A5E582158270E9158388
:10006D0080E5E4FC75170090003C20B218D3E582C2
:10007D009400E5839400400D1201A5E58215827070
:10008D00E9158380E59001F430B223D3E582940025
:10009D00E583940040181201A50508E582158270CC
:1000AD00021583E508D3941E40DED2A8802D740975
:1000BD002CF8C000E6C313D000F6E508C394084041
:1000CD000874092CF8E64480F67508000517E51745
:0B00DD00C3940840920CEC640470898E
:1000E800D007D006D005D004D002D000D0D0D0821E
:0500F800D083D0E032CE
:1000FD00E4FFEFB40800504D90010CF8282873026E
:10010D00012402012802013002013402013C0201E6
:10011D004002014802014CC2A28002D2A2C2A3C277
:10012D00A48022C2A28002D2A2D2A3C2A48016C2EF
:10013D00A28002D2A2C2A3D2A4800AC2A28002D2FD
:10014D00A2D2A3D2A4740F2FF8E6F5807D0A7C000D
:10015D00ED1DAA0470011C4A70F6E4F5800FEF64E2
:03016D0008708F88
:01017000226C
:030000000201D02A
:0C01D000787FE4F6D8FD758117020171FC
:00000001FF
